{
  "abi": [
    {
      "inputs": [],
      "name": "AssetNonExistsInAssetShell",
      "type": "error"
    },
    {
      "inputs": [
        {
          "internalType": "bytes4",
          "name": "interfaceId",
          "type": "bytes4"
        }
      ],
      "name": "CheckInterfaceNoMatch",
      "type": "error"
    },
    {
      "inputs": [],
      "name": "LockTokenIDValueEmptyInAssetShell",
      "type": "error"
    },
    {
      "inputs": [],
      "name": "MethodNotImplemented",
      "type": "error"
    },
    {
      "inputs": [],
      "name": "NeedToUnlockAssetFirst",
      "type": "error"
    },
    {
      "inputs": [],
      "name": "NeedToUnlockAssetFirstForPreviousOwner",
      "type": "error"
    },
    {
      "inputs": [],
      "name": "NonContractAddress",
      "type": "error"
    },
    {
      "inputs": [],
      "name": "PayableInsufficientAmount",
      "type": "error"
    },
    {
      "inputs": [],
      "name": "PayableInsufficientAmountWETH",
      "type": "error"
    },
    {
      "inputs": [],
      "name": "PermissionDenied",
      "type": "error"
    },
    {
      "inputs": [],
      "name": "PermissionDeniedForOnlyDAO",
      "type": "error"
    },
    {
      "inputs": [],
      "name": "PermissionDeniedForOnlyDAOsOperator",
      "type": "error"
    },
    {
      "anonymous": false,
      "inputs": [
        {
          "indexed": true,
          "internalType": "address",
          "name": "account",
          "type": "address"
        },
        {
          "indexed": true,
          "internalType": "address",
          "name": "operator",
          "type": "address"
        },
        {
          "indexed": false,
          "internalType": "bool",
          "name": "approved",
          "type": "bool"
        }
      ],
      "name": "ApprovalForAll",
      "type": "event"
    },
    {
      "anonymous": false,
      "inputs": [
        {
          "indexed": true,
          "internalType": "uint256",
          "name": "tag",
          "type": "uint256"
        },
        {
          "indexed": false,
          "internalType": "uint256",
          "name": "value",
          "type": "uint256"
        }
      ],
      "name": "Change",
      "type": "event"
    },
    {
      "anonymous": false,
      "inputs": [
        {
          "indexed": false,
          "internalType": "uint8",
          "name": "version",
          "type": "uint8"
        }
      ],
      "name": "Initialized",
      "type": "event"
    },
    {
      "anonymous": false,
      "inputs": [
        {
          "indexed": true,
          "internalType": "address",
          "name": "operator",
          "type": "address"
        },
        {
          "indexed": true,
          "internalType": "address",
          "name": "from",
          "type": "address"
        },
        {
          "indexed": true,
          "internalType": "address",
          "name": "to",
          "type": "address"
        },
        {
          "indexed": false,
          "internalType": "uint256[]",
          "name": "ids",
          "type": "uint256[]"
        },
        {
          "indexed": false,
          "internalType": "uint256[]",
          "name": "values",
          "type": "uint256[]"
        }
      ],
      "name": "TransferBatch",
      "type": "event"
    },
    {
      "anonymous": false,
      "inputs": [
        {
          "indexed": true,
          "internalType": "address",
          "name": "operator",
          "type": "address"
        },
        {
          "indexed": true,
          "internalType": "address",
          "name": "from",
          "type": "address"
        },
        {
          "indexed": true,
          "internalType": "address",
          "name": "to",
          "type": "address"
        },
        {
          "indexed": false,
          "internalType": "uint256",
          "name": "id",
          "type": "uint256"
        },
        {
          "indexed": false,
          "internalType": "uint256",
          "name": "value",
          "type": "uint256"
        }
      ],
      "name": "TransferSingle",
      "type": "event"
    },
    {
      "anonymous": false,
      "inputs": [
        {
          "indexed": false,
          "internalType": "string",
          "name": "value",
          "type": "string"
        },
        {
          "indexed": true,
          "internalType": "uint256",
          "name": "id",
          "type": "uint256"
        }
      ],
      "name": "URI",
      "type": "event"
    },
    {
      "inputs": [
        {
          "internalType": "address",
          "name": "account",
          "type": "address"
        },
        {
          "internalType": "uint256",
          "name": "id",
          "type": "uint256"
        }
      ],
      "name": "balanceOf",
      "outputs": [
        {
          "internalType": "uint256",
          "name": "",
          "type": "uint256"
        }
      ],
      "stateMutability": "view",
      "type": "function"
    },
    {
      "inputs": [
        {
          "internalType": "address[]",
          "name": "accounts",
          "type": "address[]"
        },
        {
          "internalType": "uint256[]",
          "name": "ids",
          "type": "uint256[]"
        }
      ],
      "name": "balanceOfBatch",
      "outputs": [
        {
          "internalType": "uint256[]",
          "name": "",
          "type": "uint256[]"
        }
      ],
      "stateMutability": "view",
      "type": "function"
    },
    {
      "inputs": [],
      "name": "baseURI",
      "outputs": [
        {
          "internalType": "string",
          "name": "",
          "type": "string"
        }
      ],
      "stateMutability": "view",
      "type": "function"
    },
    {
      "inputs": [],
      "name": "base_contract_uri",
      "outputs": [
        {
          "internalType": "string",
          "name": "",
          "type": "string"
        }
      ],
      "stateMutability": "view",
      "type": "function"
    },
    {
      "inputs": [
        {
          "internalType": "bytes4",
          "name": "interfaceId",
          "type": "bytes4"
        }
      ],
      "name": "checkInterface",
      "outputs": [],
      "stateMutability": "view",
      "type": "function"
    },
    {
      "inputs": [],
      "name": "contractURI",
      "outputs": [
        {
          "internalType": "string",
          "name": "uri",
          "type": "string"
        }
      ],
      "stateMutability": "view",
      "type": "function"
    },
    {
      "inputs": [],
      "name": "description",
      "outputs": [
        {
          "internalType": "string",
          "name": "",
          "type": "string"
        }
      ],
      "stateMutability": "view",
      "type": "function"
    },
    {
      "inputs": [
        {
          "internalType": "uint256",
          "name": "id",
          "type": "uint256"
        }
      ],
      "name": "exists",
      "outputs": [
        {
          "internalType": "bool",
          "name": "",
          "type": "bool"
        }
      ],
      "stateMutability": "view",
      "type": "function"
    },
    {
      "inputs": [],
      "name": "external_link",
      "outputs": [
        {
          "internalType": "string",
          "name": "",
          "type": "string"
        }
      ],
      "stateMutability": "view",
      "type": "function"
    },
    {
      "inputs": [],
      "name": "fee_recipient",
      "outputs": [
        {
          "internalType": "address",
          "name": "",
          "type": "address"
        }
      ],
      "stateMutability": "view",
      "type": "function"
    },
    {
      "inputs": [],
      "name": "host",
      "outputs": [
        {
          "internalType": "contract IDAO",
          "name": "",
          "type": "address"
        }
      ],
      "stateMutability": "view",
      "type": "function"
    },
    {
      "inputs": [],
      "name": "image",
      "outputs": [
        {
          "internalType": "string",
          "name": "",
          "type": "string"
        }
      ],
      "stateMutability": "view",
      "type": "function"
    },
    {
      "inputs": [],
      "name": "impl",
      "outputs": [
        {
          "internalType": "address",
          "name": "",
          "type": "address"
        }
      ],
      "stateMutability": "view",
      "type": "function"
    },
    {
      "inputs": [
        {
          "internalType": "address",
          "name": "account",
          "type": "address"
        },
        {
          "internalType": "address",
          "name": "operator",
          "type": "address"
        }
      ],
      "name": "isApprovedForAll",
      "outputs": [
        {
          "internalType": "bool",
          "name": "",
          "type": "bool"
        }
      ],
      "stateMutability": "view",
      "type": "function"
    },
    {
      "inputs": [],
      "name": "name",
      "outputs": [
        {
          "internalType": "string",
          "name": "",
          "type": "string"
        }
      ],
      "stateMutability": "view",
      "type": "function"
    },
    {
      "inputs": [],
      "name": "operator",
      "outputs": [
        {
          "internalType": "address",
          "name": "",
          "type": "address"
        }
      ],
      "stateMutability": "view",
      "type": "function"
    },
    {
      "inputs": [
        {
          "internalType": "address",
          "name": "from",
          "type": "address"
        },
        {
          "internalType": "address",
          "name": "to",
          "type": "address"
        },
        {
          "internalType": "uint256[]",
          "name": "ids",
          "type": "uint256[]"
        },
        {
          "internalType": "uint256[]",
          "name": "amounts",
          "type": "uint256[]"
        },
        {
          "internalType": "bytes",
          "name": "data",
          "type": "bytes"
        }
      ],
      "name": "safeBatchTransferFrom",
      "outputs": [],
      "stateMutability": "nonpayable",
      "type": "function"
    },
    {
      "inputs": [
        {
          "internalType": "address",
          "name": "from",
          "type": "address"
        },
        {
          "internalType": "address",
          "name": "to",
          "type": "address"
        },
        {
          "internalType": "uint256",
          "name": "id",
          "type": "uint256"
        },
        {
          "internalType": "uint256",
          "name": "amount",
          "type": "uint256"
        },
        {
          "internalType": "bytes",
          "name": "data",
          "type": "bytes"
        }
      ],
      "name": "safeTransferFrom",
      "outputs": [],
      "stateMutability": "nonpayable",
      "type": "function"
    },
    {
      "inputs": [],
      "name": "saleType",
      "outputs": [
        {
          "internalType": "enum IAssetShell.SaleType",
          "name": "",
          "type": "uint8"
        }
      ],
      "stateMutability": "view",
      "type": "function"
    },
    {
      "inputs": [],
      "name": "seller_fee_basis_points",
      "outputs": [
        {
          "internalType": "uint32",
          "name": "",
          "type": "uint32"
        }
      ],
      "stateMutability": "view",
      "type": "function"
    },
    {
      "inputs": [
        {
          "internalType": "address",
          "name": "operator",
          "type": "address"
        },
        {
          "internalType": "bool",
          "name": "approved",
          "type": "bool"
        }
      ],
      "name": "setApprovalForAll",
      "outputs": [],
      "stateMutability": "nonpayable",
      "type": "function"
    },
    {
      "inputs": [
        {
          "internalType": "string",
          "name": "value",
          "type": "string"
        }
      ],
      "name": "setDescription",
      "outputs": [],
      "stateMutability": "nonpayable",
      "type": "function"
    },
    {
      "inputs": [
        {
          "internalType": "address",
          "name": "operator_",
          "type": "address"
        }
      ],
      "name": "setOperator",
      "outputs": [],
      "stateMutability": "nonpayable",
      "type": "function"
    },
    {
      "inputs": [
        {
          "internalType": "address",
          "name": "recipient",
          "type": "address"
        }
      ],
      "name": "set_fee_recipient",
      "outputs": [],
      "stateMutability": "nonpayable",
      "type": "function"
    },
    {
      "inputs": [
        {
          "internalType": "uint32",
          "name": "value",
          "type": "uint32"
        }
      ],
      "name": "set_seller_fee_basis_points",
      "outputs": [],
      "stateMutability": "nonpayable",
      "type": "function"
    },
    {
      "inputs": [
        {
          "internalType": "uint256",
          "name": "id",
          "type": "uint256"
        }
      ],
      "name": "totalSupply",
      "outputs": [
        {
          "internalType": "uint256",
          "name": "",
          "type": "uint256"
        }
      ],
      "stateMutability": "view",
      "type": "function"
    },
    {
      "inputs": [
        {
          "internalType": "address",
          "name": "impl_",
          "type": "address"
        }
      ],
      "name": "upgrade",
      "outputs": [],
      "stateMutability": "nonpayable",
      "type": "function"
    },
    {
      "stateMutability": "payable",
      "type": "receive"
    },
    {
      "inputs": [
        {
          "internalType": "bytes4",
          "name": "interfaceId",
          "type": "bytes4"
        }
      ],
      "name": "supportsInterface",
      "outputs": [
        {
          "internalType": "bool",
          "name": "",
          "type": "bool"
        }
      ],
      "stateMutability": "view",
      "type": "function"
    },
    {
      "inputs": [
        {
          "internalType": "address",
          "name": "host",
          "type": "address"
        },
        {
          "internalType": "address",
          "name": "operator",
          "type": "address"
        },
        {
          "internalType": "enum IAssetShell.SaleType",
          "name": "_saleType",
          "type": "uint8"
        },
        {
          "components": [
            {
              "internalType": "string",
              "name": "name",
              "type": "string"
            },
            {
              "internalType": "string",
              "name": "description",
              "type": "string"
            },
            {
              "internalType": "string",
              "name": "image",
              "type": "string"
            },
            {
              "internalType": "string",
              "name": "external_link",
              "type": "string"
            },
            {
              "internalType": "uint32",
              "name": "seller_fee_basis_points",
              "type": "uint32"
            },
            {
              "internalType": "address",
              "name": "fee_recipient",
              "type": "address"
            },
            {
              "internalType": "string",
              "name": "base_contract_uri",
              "type": "string"
            },
            {
              "internalType": "string",
              "name": "base_uri",
              "type": "string"
            }
          ],
          "internalType": "struct AssetModule.InitContractURI",
          "name": "uri",
          "type": "tuple"
        }
      ],
      "name": "initAssetShell",
      "outputs": [],
      "stateMutability": "nonpayable",
      "type": "function"
    },
    {
      "inputs": [
        {
          "internalType": "address",
          "name": "operator",
          "type": "address"
        },
        {
          "internalType": "address",
          "name": "from",
          "type": "address"
        },
        {
          "internalType": "uint256",
          "name": "tokenId",
          "type": "uint256"
        },
        {
          "internalType": "uint256",
          "name": "value",
          "type": "uint256"
        },
        {
          "internalType": "bytes",
          "name": "data",
          "type": "bytes"
        }
      ],
      "name": "onERC1155Received",
      "outputs": [
        {
          "internalType": "bytes4",
          "name": "",
          "type": "bytes4"
        }
      ],
      "stateMutability": "nonpayable",
      "type": "function"
    },
    {
      "inputs": [
        {
          "internalType": "address",
          "name": "operator",
          "type": "address"
        },
        {
          "internalType": "address",
          "name": "from",
          "type": "address"
        },
        {
          "internalType": "uint256[]",
          "name": "ids",
          "type": "uint256[]"
        },
        {
          "internalType": "uint256[]",
          "name": "values",
          "type": "uint256[]"
        },
        {
          "internalType": "bytes",
          "name": "data",
          "type": "bytes"
        }
      ],
      "name": "onERC1155BatchReceived",
      "outputs": [
        {
          "internalType": "bytes4",
          "name": "",
          "type": "bytes4"
        }
      ],
      "stateMutability": "nonpayable",
      "type": "function"
    },
    {
      "inputs": [
        {
          "internalType": "address",
          "name": "metaToken",
          "type": "address"
        },
        {
          "internalType": "uint256",
          "name": "metaTokenId",
          "type": "uint256"
        }
      ],
      "name": "convertTokenID",
      "outputs": [
        {
          "internalType": "uint256",
          "name": "",
          "type": "uint256"
        }
      ],
      "stateMutability": "pure",
      "type": "function"
    },
    {
      "inputs": [
        {
          "internalType": "uint256",
          "name": "tokenId",
          "type": "uint256"
        }
      ],
      "name": "uri",
      "outputs": [
        {
          "internalType": "string",
          "name": "",
          "type": "string"
        }
      ],
      "stateMutability": "view",
      "type": "function"
    },
    {
      "inputs": [
        {
          "internalType": "uint256",
          "name": "tokenId",
          "type": "uint256"
        }
      ],
      "name": "assetMeta",
      "outputs": [
        {
          "components": [
            {
              "internalType": "address",
              "name": "token",
              "type": "address"
            },
            {
              "internalType": "uint256",
              "name": "tokenId",
              "type": "uint256"
            }
          ],
          "internalType": "struct IAssetShell.AssetID",
          "name": "meta",
          "type": "tuple"
        }
      ],
      "stateMutability": "view",
      "type": "function"
    },
    {
      "inputs": [
        {
          "internalType": "uint256",
          "name": "tokenId",
          "type": "uint256"
        },
        {
          "internalType": "address",
          "name": "owner",
          "type": "address"
        },
        {
          "internalType": "uint256",
          "name": "count",
          "type": "uint256"
        }
      ],
      "name": "withdraw",
      "outputs": [],
      "stateMutability": "nonpayable",
      "type": "function"
    },
    {
      "inputs": [
        {
          "internalType": "uint256",
          "name": "tokenId",
          "type": "uint256"
        },
        {
          "internalType": "address",
          "name": "owner",
          "type": "address"
        }
      ],
      "name": "lockedOf",
      "outputs": [
        {
          "internalType": "uint256",
          "name": "count",
          "type": "uint256"
        },
        {
          "internalType": "uint256",
          "name": "length",
          "type": "uint256"
        }
      ],
      "stateMutability": "view",
      "type": "function"
    },
    {
      "inputs": [
        {
          "internalType": "uint256",
          "name": "tokenId",
          "type": "uint256"
        },
        {
          "internalType": "address",
          "name": "owner",
          "type": "address"
        },
        {
          "internalType": "uint256",
          "name": "index",
          "type": "uint256"
        }
      ],
      "name": "lockedAt",
      "outputs": [
        {
          "internalType": "address",
          "name": "previous",
          "type": "address"
        },
        {
          "internalType": "uint256",
          "name": "count",
          "type": "uint256"
        }
      ],
      "stateMutability": "view",
      "type": "function"
    },
    {
      "inputs": [
        {
          "internalType": "uint256",
          "name": "tokenId",
          "type": "uint256"
        }
      ],
      "name": "minimumPrice",
      "outputs": [
        {
          "internalType": "uint256",
          "name": "",
          "type": "uint256"
        }
      ],
      "stateMutability": "view",
      "type": "function"
    },
    {
      "inputs": [
        {
          "components": [
            {
              "components": [
                {
                  "internalType": "uint256",
                  "name": "tokenId",
                  "type": "uint256"
                },
                {
                  "internalType": "address",
                  "name": "owner",
                  "type": "address"
                },
                {
                  "internalType": "address",
                  "name": "previous",
                  "type": "address"
                }
              ],
              "internalType": "struct AssetShell.LockedID",
              "name": "lock",
              "type": "tuple"
            },
            {
              "internalType": "enum AssetShell.PayType",
              "name": "payType",
              "type": "uint8"
            },
            {
              "internalType": "uint256",
              "name": "payValue",
              "type": "uint256"
            },
            {
              "internalType": "address",
              "name": "payBank",
              "type": "address"
            },
            {
              "internalType": "address",
              "name": "payer",
              "type": "address"
            }
          ],
          "internalType": "struct AssetShell.UnlockForOperator[]",
          "name": "data",
          "type": "tuple[]"
        }
      ],
      "name": "unlockForOperator",
      "outputs": [],
      "stateMutability": "payable",
      "type": "function"
    },
    {
      "inputs": [
        {
          "components": [
            {
              "internalType": "uint256",
              "name": "tokenId",
              "type": "uint256"
            },
            {
              "internalType": "address",
              "name": "owner",
              "type": "address"
            },
            {
              "internalType": "address",
              "name": "previous",
              "type": "address"
            }
          ],
          "internalType": "struct AssetShell.LockedID",
          "name": "lock",
          "type": "tuple"
        }
      ],
      "name": "unlock",
      "outputs": [],
      "stateMutability": "payable",
      "type": "function"
    }
  ],
  "bytecode": "0x608060405234801561001057600080fd5b506148f5806100206000396000f3fe60806040526004361061023e5760003560e01c80637972bdf31161012e578063bc197c81116100ab578063f23a6e611161006f578063f23a6e6114610795578063f242432a146107b5578063f3ccaac0146107d5578063f437bc59146107ea578063f9b62b7a1461080857600080fd5b8063bc197c81146106b1578063bd85b039146106ea578063e63697c814610717578063e8a3d48514610737578063e985e9c51461074c57600080fd5b806391eb3dee116100f257806391eb3dee146105dd578063a22cb465146105fd578063afa2e6621461061d578063b0a41b3e1461065c578063b3ab15fb1461069157600080fd5b80637972bdf3146105575780637b1bc21d1461056c5780638abf60771461057f57806390c3f38f1461059d57806391d81889146105bd57600080fd5b80634e1273f4116101bc57806362f8a8551161018057806362f8a855146104a45780636c0360eb146104d457806371fcf468146104e95780637284e41614610522578063758f969a1461053757600080fd5b80634e1273f4146103cf5780634f558e79146103fc5780635027b8b81461042b578063570ca7351461044b5780635bcc79281461047d57600080fd5b806312dba7851161020357806312dba785146103475780632eb2c2d61461035c57806330cc317b1461037c57806335c2c7bd1461039c5780634c6e425b146103af57600080fd5b8062fdd58e1461028257806301ffc9a7146102b557806306fdde03146102e55780630900f010146103075780630e89341c1461032757600080fd5b3661027d576040805160608101825260185481526019546001600160a01b039081166020830152601a54169181019190915261027b90333461084c565b005b600080fd5b34801561028e57600080fd5b506102a261029d3660046135a7565b610b67565b6040519081526020015b60405180910390f35b3480156102c157600080fd5b506102d56102d03660046135e9565b610c02565b60405190151581526020016102ac565b3480156102f157600080fd5b506102fa610c35565b6040516102ac9190613656565b34801561031357600080fd5b5061027b610322366004613669565b610cc7565b34801561033357600080fd5b506102fa610342366004613686565b610d32565b34801561035357600080fd5b506102fa610dbd565b34801561036857600080fd5b5061027b610377366004613821565b610e4b565b34801561038857600080fd5b5061027b610397366004613669565b610e97565b61027b6103aa36600461393a565b610efb565b3480156103bb57600080fd5b5061027b6103ca3660046135e9565b610f09565b3480156103db57600080fd5b506103ef6103ea366004613956565b610f3b565b6040516102ac9190613a53565b34801561040857600080fd5b506102d5610417366004613686565b600090815260166020526040902054151590565b34801561043757600080fd5b5061027b610446366004613a7a565b611064565b34801561045757600080fd5b506003546001600160a01b03165b6040516001600160a01b0390911681526020016102ac565b34801561048957600080fd5b50601b546104979060ff1681565b6040516102ac9190613c31565b3480156104b057600080fd5b506102a26104bf366004613686565b60009081526017602052604090206002015490565b3480156104e057600080fd5b506102fa6110a9565b3480156104f557600080fd5b5060105461050d90600160a01b900463ffffffff1681565b60405163ffffffff90911681526020016102ac565b34801561052e57600080fd5b506102fa6110b6565b34801561054357600080fd5b50601054610465906001600160a01b031681565b34801561056357600080fd5b506102fa6110c5565b61027b61057a366004613c3f565b6110d2565b34801561058b57600080fd5b506000546001600160a01b0316610465565b3480156105a957600080fd5b5061027b6105b8366004613cb3565b61132c565b3480156105c957600080fd5b506102a26105d83660046135a7565b61147d565b3480156105e957600080fd5b5061027b6105f8366004613ce7565b6114c5565b34801561060957600080fd5b5061027b610618366004613d10565b611620565b34801561062957600080fd5b5061063d610638366004613d49565b61162f565b604080516001600160a01b0390931683526020830191909152016102ac565b34801561066857600080fd5b5061067c610677366004613d81565b61166f565b604080519283526020830191909152016102ac565b34801561069d57600080fd5b5061027b6106ac366004613669565b6116ae565b3480156106bd57600080fd5b506106d16106cc366004613e2b565b611712565b6040516001600160e01b031990911681526020016102ac565b3480156106f657600080fd5b506102a2610705366004613686565b60009081526016602052604090205490565b34801561072357600080fd5b5061027b610732366004613d49565b61172d565b34801561074357600080fd5b506102fa611895565b34801561075857600080fd5b506102d5610767366004613ee9565b6001600160a01b03918216600090815260136020908152604080832093909416825291909152205460ff1690565b3480156107a157600080fd5b506106d16107b0366004613f17565b611a98565b3480156107c157600080fd5b5061027b6107d0366004613f92565b611b56565b3480156107e157600080fd5b506102fa611b9b565b3480156107f657600080fd5b506002546001600160a01b0316610465565b34801561081457600080fd5b50610828610823366004613686565b611ba8565b6040805182516001600160a01b0316815260209283015192810192909252016102ac565b82516000908152601760209081526040808320828701516001600160a01b0316845260038101909252808320908601519192909161088e906001840190611c0d565b9050806000036108b157604051632170716560e11b815260040160405180910390fd5b6020860151601054600090600160a01b900463ffffffff166108d587612710614010565b6108df9190614027565b905060008386600201546108f39190614010565b90508082101561091657604051630b7b66df60e31b815260040160405180910390fd5b600260009054906101000a90046001600160a01b03166001600160a01b03166356397c356040518163ffffffff1660e01b8152600401602060405180830381865afa158015610969573d6000803e3d6000fd5b505050506040513d601f19601f8201168201806040525081019061098d9190614049565b6001600160a01b0316639521894788308c600001518c8e6040015189898c601b60009054906101000a900460ff166040518a63ffffffff1660e01b81526004016109de989796959493929190614066565b6000604051808303818588803b1580156109f757600080fd5b505af1158015610a0b573d6000803e3d6000fd5b50508b516018541492505081159050610a36575060208901516019546001600160a01b039081169116145b8015610a5457506040890151601a546001600160a01b039081169116145b15610a5f5760006018555b83856000016000828254610a7391906140be565b90915550506040890151610a8b906001870190611c22565b506001601b5460ff166002811115610aa557610aa5613bf9565b03610b5c576002860154604080516001600160a01b03861660208201529081019190915260009060600160408051808303601f1901815290829052600254632187baed60e11b835260056004840152909250610b5a9186916001600160a01b03169063430f75da90602401602060405180830381865afa158015610b2d573d6000803e3d6000fd5b505050506040513d601f19601f82011682018060405250810190610b519190614049565b8c518885611c37565b505b505050505050505050565b60006001600160a01b038316610bd75760405162461bcd60e51b815260206004820152602a60248201527f455243313135353a2061646472657373207a65726f206973206e6f742061207660448201526930b634b21037bbb732b960b11b60648201526084015b60405180910390fd5b5060008181526012602090815260408083206001600160a01b03861684529091529020545b92915050565b6000610c0d82611cc7565b80610bfc57506001600160e01b0319821660009081526001602052604090205460ff16610bfc565b6060600d8054610c44906140d1565b80601f0160208091040260200160405190810160405280929190818152602001828054610c70906140d1565b8015610cbd5780601f10610c9257610100808354040283529160200191610cbd565b820191906000526020600020905b815481529060010190602001808311610ca057829003601f168201915b5050505050905090565b610ccf611cfd565b610cec57604051631b4004a360e31b815260040160405180910390fd5b600080546001600160a01b0319166001600160a01b0383169081179091556040519081526003906000805160206148a0833981519152906020015b60405180910390a250565b60606000610d3f83611ba8565b805160208201516040516303a24d0760e21b815260048101919091529192506001600160a01b031690630e89341c90602401600060405180830381865afa158015610d8e573d6000803e3d6000fd5b505050506040513d6000823e601f3d908101601f19168201604052610db6919081019061410b565b9392505050565b60118054610dca906140d1565b80601f0160208091040260200160405190810160405280929190818152602001828054610df6906140d1565b8015610e435780601f10610e1857610100808354040283529160200191610e43565b820191906000526020600020905b815481529060010190602001808311610e2657829003601f168201915b505050505081565b6001600160a01b038516331480610e675750610e678533610767565b610e835760405162461bcd60e51b8152600401610bce9061418c565b610e908585858585611e3c565b5050505050565b610e9f611cfd565b610ebc57604051631b4004a360e31b815260040160405180910390fd5b601080546001600160a01b0319166001600160a01b0383169081179091556040519081526007906000805160206148a083398151915290602001610d27565b610f0681333461084c565b50565b610f1281610c02565b610f0657604051632aae78ef60e01b81526001600160e01b031982166004820152602401610bce565b60608151835114610fa05760405162461bcd60e51b815260206004820152602960248201527f455243313135353a206163636f756e747320616e6420696473206c656e677468604482015268040dad2e6dac2e8c6d60bb1b6064820152608401610bce565b600083516001600160401b03811115610fbb57610fbb61369f565b604051908082528060200260200182016040528015610fe4578160200160208202803683370190505b50905060005b845181101561105c5761102f858281518110611008576110086141da565b6020026020010151858381518110611022576110226141da565b6020026020010151610b67565b828281518110611041576110416141da565b6020908102919091010152611055816141f0565b9050610fea565b509392505050565b61106f848483612030565b61107f6343234e9560e01b6120dd565b601b805483919060ff1916600183600281111561109e5761109e613bf9565b021790555050505050565b60148054610dca906140d1565b606060048054610c44906140d1565b600f8054610dca906140d1565b60025460408051632612fc0f60e21b8152905133926001600160a01b03169163984bf03c9160048083019260209291908290030181865afa15801561111b573d6000803e3d6000fd5b505050506040513d601f19601f8201168201806040525081019061113f9190614049565b6001600160a01b031663570ca7356040518163ffffffff1660e01b8152600401602060405180830381865afa15801561117c573d6000803e3d6000fd5b505050506040513d601f19601f820116820180604052508101906111a09190614049565b6001600160a01b0316146111c75760405163015a31db60e11b815260040160405180910390fd5b3460005b828110156113265760008484838181106111e7576111e76141da565b905060e002018036038101906111fd9190614209565b905060008160200151600181111561121757611217613bf9565b0361126e57806040015183101561124157604051630b7b66df60e31b815260040160405180910390fd5b604081015161125090846140be565b925061126981600001518260800151836040015161084c565b611313565b80606001516001600160a01b0316632e1a7d4d82604001516040518263ffffffff1660e01b81526004016112a491815260200190565b600060405180830381600087803b1580156112be57600080fd5b505af11580156112d2573d6000803e3d6000fd5b505050506040810151303110156112fc57604051636a9dd36f60e11b815260040160405180910390fd5b61131381600001518260800151836040015161084c565b508061131e816141f0565b9150506111cb565b50505050565b63d0a4ad96611339611cfd565b61144257600260009054906101000a90046001600160a01b03166001600160a01b031663e3f6b5446040518163ffffffff1660e01b8152600401602060405180830381865afa158015611390573d6000803e3d6000fd5b505050506040513d601f19601f820116820180604052508101906113b49190614049565b60405163a8a555c560e01b8152336004820152602481018390526001600160a01b03919091169063a8a555c590604401602060405180830381865afa158015611401573d6000803e3d6000fd5b505050506040513d601f19601f82011682018060405250810190611425919061429a565b61144257604051630782484160e21b815260040160405180910390fd5b600461144e8382614302565b5060016000805160206148a0833981519152600060405161147191815260200190565b60405180910390a25050565b6040516bffffffffffffffffffffffff19606084901b1660208201526034810182905260009060540160408051601f1981840301815291905280516020909101209392505050565b6391eb3dee6114d2611cfd565b6115db57600260009054906101000a90046001600160a01b03166001600160a01b031663e3f6b5446040518163ffffffff1660e01b8152600401602060405180830381865afa158015611529573d6000803e3d6000fd5b505050506040513d601f19601f8201168201806040525081019061154d9190614049565b60405163a8a555c560e01b8152336004820152602481018390526001600160a01b03919091169063a8a555c590604401602060405180830381865afa15801561159a573d6000803e3d6000fd5b505050506040513d601f19601f820116820180604052508101906115be919061429a565b6115db57604051630782484160e21b815260040160405180910390fd5b6010805463ffffffff60a01b1916600160a01b63ffffffff8516908102919091179091556040519081526006906000805160206148a083398151915290602001611471565b61162b33838361215f565b5050565b60008381526017602090815260408083206001600160a01b038616845260030190915281208190611663906001018461223f565b90969095509350505050565b60008281526017602090815260408083206001600160a01b03851684526003019091528120805491906116a46001820161225d565b9150509250929050565b6116b6611cfd565b6116d357604051631b4004a360e31b815260040160405180910390fd5b600380546001600160a01b0319166001600160a01b0383169081179091556040519081526002906000805160206148a083398151915290602001610d27565b6000604051632974974360e01b815260040160405180910390fd5b632e1a7d4d61173a611cfd565b61184357600260009054906101000a90046001600160a01b03166001600160a01b031663e3f6b5446040518163ffffffff1660e01b8152600401602060405180830381865afa158015611791573d6000803e3d6000fd5b505050506040513d601f19601f820116820180604052508101906117b59190614049565b60405163a8a555c560e01b8152336004820152602481018390526001600160a01b03919091169063a8a555c590604401602060405180830381865afa158015611802573d6000803e3d6000fd5b505050506040513d601f19601f82011682018060405250810190611826919061429a565b61184357604051630782484160e21b815260040160405180910390fd5b600084815260176020526040902080546001600160a01b031661187957604051632a563a4960e11b815260040160405180910390fd5b610e908485878660405180602001604052806000815250611c37565b6060600061192c600d80546118a9906140d1565b80601f01602080910402602001604051908101604052809291908181526020018280546118d5906140d1565b80156119225780601f106118f757610100808354040283529160200191611922565b820191906000526020600020905b81548152906001019060200180831161190557829003601f168201915b5050505050612268565b60405160200161193c91906143dd565b6040516020818303038152906040529050600061195f600480546118a9906140d1565b60405160200161196f919061440e565b60405160208183030381529060405290506000611992600e80546118a9906140d1565b6040516020016119a29190614446565b604051602081830303815290604052905060006119c5600f80546118a9906140d1565b6040516020016119d59190614478565b60408051808303601f19018152919052601054909150600090611a0490600160a01b900463ffffffff166123c0565b604051602001611a1491906144b2565b60408051601f19818403018152919052601054909150600090611a3f906001600160a01b0316612452565b604051602001611a4f91906144f7565b60405160208183030381529060405290506011868686868686604051602001611a7e979695949392919061452e565b604051602081830303815290604052965050505050505090565b600080611aa433612468565b9050306001600160a01b03881603611abb57600080fd5b600080611aca858701876135a7565b90925090506000611adb848a61147d565b60008181526017602052604081206002810154929350919003611b0057600281018390555b80546001600160a01b0319166001600160a01b038616178155600181018a9055604080516020810190915260008152611b3e90859084908c9061252b565b5063f23a6e6160e01b9b9a5050505050505050505050565b6001600160a01b038516331480611b725750611b728533610767565b611b8e5760405162461bcd60e51b8152600401610bce9061418c565b610e90858585858561265f565b600e8054610dca906140d1565b6040805180820182526000808252602091820181905283815260178252829020825180840190935280546001600160a01b031680845260019091015491830191909152611c0857604051632a563a4960e11b815260040160405180910390fd5b919050565b6000610db6836001600160a01b03841661279e565b6000610db6836001600160a01b03841661280e565b60008381526017602052604090819020805460018201549251637921219560e11b815291926001600160a01b039091169163f242432a91611c829130918a91899089906004016145f5565b600060405180830381600087803b158015611c9c57600080fd5b505af1158015611cb0573d6000803e3d6000fd5b50505050611cbf86858561282b565b505050505050565b60006001600160e01b03198216636cdb3d1360e11b1480610bfc57506001600160e01b031982166303a24d0760e21b1492915050565b60035460009033906001600160a01b03168114611e3457600260009054906101000a90046001600160a01b03166001600160a01b031663570ca7356040518163ffffffff1660e01b8152600401602060405180830381865afa158015611d67573d6000803e3d6000fd5b505050506040513d601f19601f82011682018060405250810190611d8b9190614049565b6001600160a01b0316816001600160a01b031614611e3457600260009054906101000a90046001600160a01b03166001600160a01b031663ebf0c7176040518163ffffffff1660e01b8152600401602060405180830381865afa158015611df6573d6000803e3d6000fd5b505050506040513d601f19601f82011682018060405250810190611e1a9190614049565b6001600160a01b0316816001600160a01b03161491505090565b600191505090565b8151835114611e9e5760405162461bcd60e51b815260206004820152602860248201527f455243313135353a2069647320616e6420616d6f756e7473206c656e677468206044820152670dad2e6dac2e8c6d60c31b6064820152608401610bce565b6001600160a01b038416611ec45760405162461bcd60e51b8152600401610bce9061463a565b33611ed38187878787876129c9565b60005b8451811015611fbc576000858281518110611ef357611ef36141da565b602002602001015190506000858381518110611f1157611f116141da565b60209081029190910181015160008481526012835260408082206001600160a01b038e168352909352919091205490915081811015611f625760405162461bcd60e51b8152600401610bce9061467f565b60008381526012602090815260408083206001600160a01b038e8116855292528083208585039055908b16825281208054849290611fa19084906146c9565b9250508190555050505080611fb5906141f0565b9050611ed6565b50846001600160a01b0316866001600160a01b0316826001600160a01b03167f4a39dc06d4c0dbc64b70af90fd698a233a518aa5d07e595d983b8c0526c8f7fb878760405161200c9291906146dc565b60405180910390a4612022818787878787612b42565b611cbf818787878787612cda565b61203f83826020015184612e35565b8051600d9061204e9082614302565b506040810151600e906120619082614302565b506060810151600f906120749082614302565b5060a08101516001600160a01b031615612092578060a00151612094565b305b60108054608084015163ffffffff16600160a01b026001600160c01b03199091166001600160a01b03939093169290921791909117905560c08101516011906113269082614302565b6001600160e01b031980821690036121375760405162461bcd60e51b815260206004820152601c60248201527f4552433136353a20696e76616c696420696e74657266616365206964000000006044820152606401610bce565b6001600160e01b0319166000908152600160208190526040909120805460ff19169091179055565b816001600160a01b0316836001600160a01b0316036121d25760405162461bcd60e51b815260206004820152602960248201527f455243313135353a2073657474696e6720617070726f76616c20737461747573604482015268103337b91039b2b63360b91b6064820152608401610bce565b6001600160a01b03838116600081815260136020908152604080832094871680845294825291829020805460ff191686151590811790915591519182527f17307eab39ab6107e8899845ad3d59bd9653f200f220920489ca2b5937696c31910160405180910390a3505050565b600080808061224e8686612e99565b909450925050505b9250929050565b6000610bfc82612ec4565b606060008251600261227a9190614010565b6001600160401b038111156122915761229161369f565b6040519080825280601f01601f1916602001820160405280156122bb576020820181803683370190505b50905060005b83518110156123b95760008482815181106122de576122de6141da565b016020015160f881901c91506f181899199a1a9b1b9c1cb0b131b232b360811b9060fc1c60108110612312576123126141da565b1a60f81b83600184901b8151811061232c5761232c6141da565b60200101906001600160f81b031916908160001a9053506f181899199a1a9b1b9c1cb0b131b232b360811b600f82166010811061236b5761236b6141da565b1a60f81b8361237e600185811b906146c9565b8151811061238e5761238e6141da565b60200101906001600160f81b031916908160001a9053505080806123b1906141f0565b9150506122c1565b5092915050565b606060006123cd83612ecf565b60010190506000816001600160401b038111156123ec576123ec61369f565b6040519080825280601f01601f191660200182016040528015612416576020820181803683370190505b5090508181016020015b600019016f181899199a1a9b1b9c1cb0b131b232b360811b600a86061a8153600a850494508461242057509392505050565b6060610bfc6001600160a01b0383166014612fa7565b60006001600160a01b0382163b61249257604051634aa4cf5160e01b815260040160405180910390fd5b6040516301ffc9a760e01b8152636cdb3d1360e11b60048201526001600160a01b038316906301ffc9a790602401602060405180830381865afa1580156124dd573d6000803e3d6000fd5b505050506040513d601f19601f82011682018060405250810190612501919061429a565b61252757604051632aae78ef60e01b8152636cdb3d1360e11b6004820152602401610bce565b5090565b6001600160a01b03841661258b5760405162461bcd60e51b815260206004820152602160248201527f455243313135353a206d696e7420746f20746865207a65726f206164647265736044820152607360f81b6064820152608401610bce565b33600061259785613142565b905060006125a485613142565b90506125b5836000898585896129c9565b60008681526012602090815260408083206001600160a01b038b168452909152812080548792906125e79084906146c9565b909155505060408051878152602081018790526001600160a01b03808a1692600092918716917fc3d58168c5ae7397731d063d5bbf3d657854427343f4c083240f7aacaa2d0f62910160405180910390a461264783600089858589612b42565b6126568360008989898961318d565b50505050505050565b6001600160a01b0384166126855760405162461bcd60e51b8152600401610bce9061463a565b33600061269185613142565b9050600061269e85613142565b90506126ae8389898585896129c9565b60008681526012602090815260408083206001600160a01b038c168452909152902054858110156126f15760405162461bcd60e51b8152600401610bce9061467f565b60008781526012602090815260408083206001600160a01b038d8116855292528083208985039055908a168252812080548892906127309084906146c9565b909155505060408051888152602081018890526001600160a01b03808b16928c821692918816917fc3d58168c5ae7397731d063d5bbf3d657854427343f4c083240f7aacaa2d0f62910160405180910390a4612790848a8a86868a612b42565b610b5c848a8a8a8a8a61318d565b6000818152600283016020526040812054801515806127c257506127c28484613248565b610db65760405162461bcd60e51b815260206004820152601e60248201527f456e756d657261626c654d61703a206e6f6e6578697374656e74206b657900006044820152606401610bce565b60008181526002830160205260408120819055610db68383613254565b6001600160a01b03831661288d5760405162461bcd60e51b815260206004820152602360248201527f455243313135353a206275726e2066726f6d20746865207a65726f206164647260448201526265737360e81b6064820152608401610bce565b33600061289984613142565b905060006128a684613142565b90506128c6838760008585604051806020016040528060008152506129c9565b60008581526012602090815260408083206001600160a01b038a168452909152902054848110156129455760405162461bcd60e51b8152602060048201526024808201527f455243313135353a206275726e20616d6f756e7420657863656564732062616c604482015263616e636560e01b6064820152608401610bce565b60008681526012602090815260408083206001600160a01b038b81168086529184528285208a8703905582518b81529384018a90529092908816917fc3d58168c5ae7397731d063d5bbf3d657854427343f4c083240f7aacaa2d0f62910160405180910390a461265684886000868660405180602001604052806000815250612b42565b6001600160a01b038516612a505760005b8351811015612a4e578281815181106129f5576129f56141da565b602002602001015160166000868481518110612a1357612a136141da565b602002602001015181526020019081526020016000206000828254612a3891906146c9565b90915550612a479050816141f0565b90506129da565b505b6001600160a01b038416611cbf5760005b8351811015612656576000848281518110612a7e57612a7e6141da565b602002602001015190506000848381518110612a9c57612a9c6141da565b6020026020010151905060006016600084815260200190815260200160002054905081811015612b1f5760405162461bcd60e51b815260206004820152602860248201527f455243313135353a206275726e20616d6f756e74206578636565647320746f74604482015267616c537570706c7960c01b6064820152608401610bce565b60009283526016602052604090922091039055612b3b816141f0565b9050612a61565b60005b8351811015612656576000848281518110612b6257612b626141da565b60209081029190910181015160008181526017835260408082206001600160a01b038b168352600381019094528120875192945091879086908110612ba957612ba96141da565b602002602001015190508260020154600014612cc3576001600160a01b038a1615612cc3576001600160a01b038a166000908152600384016020526040902054612bf38b86610b67565b1015612c125760405163798efa8760e11b815260040160405180910390fd5b6001600160a01b03891615612cc357612c2e600183018b613260565b15612c4c5760405163e0caa31160e01b815260040160405180910390fd5b80826000016000828254612c6091906146c9565b90915550612c749050600183018b83613275565b50604080516060810182528581526001600160a01b03808c1660208301819052908d16919092018190526018869055601980546001600160a01b03199081169093179055601a80549092161790555b505050508080612cd2906141f0565b915050612b45565b6001600160a01b0384163b15611cbf5760405163bc197c8160e01b81526001600160a01b0385169063bc197c8190612d1e908990899088908890889060040161470a565b6020604051808303816000875af1925050508015612d59575060408051601f3d908101601f19168201909252612d5691810190614768565b60015b612e0557612d65614785565b806308c379a003612d9e5750612d796147a1565b80612d845750612da0565b8060405162461bcd60e51b8152600401610bce9190613656565b505b60405162461bcd60e51b815260206004820152603460248201527f455243313135353a207472616e7366657220746f206e6f6e2d455243313135356044820152732932b1b2b4bb32b91034b6b83632b6b2b73a32b960611b6064820152608401610bce565b6001600160e01b0319811663bc197c8160e01b146126565760405162461bcd60e51b8152600401610bce9061482a565b612e3d613293565b612e4d630d64f40d60e31b6120dd565b600280546001600160a01b0319166001600160a01b0385161790556004612e748382614302565b50600380546001600160a01b0319166001600160a01b03929092169190911790555050565b60008080612ea785856133c6565b600081815260029690960160205260409095205494959350505050565b6000610bfc826133d2565b60008072184f03e93ff9f4daa797ed6e38ed64bf6a1f0160401b8310612f0e5772184f03e93ff9f4daa797ed6e38ed64bf6a1f0160401b830492506040015b6d04ee2d6d415b85acef81000000008310612f3a576d04ee2d6d415b85acef8100000000830492506020015b662386f26fc100008310612f5857662386f26fc10000830492506010015b6305f5e1008310612f70576305f5e100830492506008015b6127108310612f8457612710830492506004015b60648310612f96576064830492506002015b600a8310610bfc5760010192915050565b60606000612fb6836002614010565b612fc19060026146c9565b6001600160401b03811115612fd857612fd861369f565b6040519080825280601f01601f191660200182016040528015613002576020820181803683370190505b509050600360fc1b8160008151811061301d5761301d6141da565b60200101906001600160f81b031916908160001a905350600f60fb1b8160018151811061304c5761304c6141da565b60200101906001600160f81b031916908160001a9053506000613070846002614010565b61307b9060016146c9565b90505b60018111156130f3576f181899199a1a9b1b9c1cb0b131b232b360811b85600f16601081106130af576130af6141da565b1a60f81b8282815181106130c5576130c56141da565b60200101906001600160f81b031916908160001a90535060049490941c936130ec81614872565b905061307e565b508315610db65760405162461bcd60e51b815260206004820181905260248201527f537472696e67733a20686578206c656e67746820696e73756666696369656e746044820152606401610bce565b6040805160018082528183019092526060916000919060208083019080368337019050509050828160008151811061317c5761317c6141da565b602090810291909101015292915050565b6001600160a01b0384163b15611cbf5760405163f23a6e6160e01b81526001600160a01b0385169063f23a6e61906131d190899089908890889088906004016145f5565b6020604051808303816000875af192505050801561320c575060408051601f3d908101601f1916820190925261320991810190614768565b60015b61321857612d65614785565b6001600160e01b0319811663f23a6e6160e01b146126565760405162461bcd60e51b8152600401610bce9061482a565b6000610db683836133dc565b6000610db683836133f4565b6000610db6836001600160a01b038416613248565b600061328b846001600160a01b038516846134e7565b949350505050565b600054600160a81b900460ff16158080156132bb57506000546001600160a01b90910460ff16105b806132dc5750303b1580156132dc5750600054600160a01b900460ff166001145b61333f5760405162461bcd60e51b815260206004820152602e60248201527f496e697469616c697a61626c653a20636f6e747261637420697320616c72656160448201526d191e481a5b9a5d1a585b1a5e995960921b6064820152608401610bce565b6000805460ff60a01b1916600160a01b179055801561336c576000805460ff60a81b1916600160a81b1790555b61337c6301ffc9a760e01b6120dd565b8015610f06576000805460ff60a81b19169055604051600181527f7f26b83ff96e1f2b6a682f133852f6798a09c465da95921460cefb38474024989060200160405180910390a150565b6000610db68383613504565b6000610bfc825490565b60008181526001830160205260408120541515610db6565b600081815260018301602052604081205480156134dd5760006134186001836140be565b855490915060009061342c906001906140be565b905081811461349157600086600001828154811061344c5761344c6141da565b906000526020600020015490508087600001848154811061346f5761346f6141da565b6000918252602080832090910192909255918252600188019052604090208390555b85548690806134a2576134a2614889565b600190038181906000526020600020016000905590558560010160008681526020019081526020016000206000905560019350505050610bfc565b6000915050610bfc565b6000828152600284016020526040812082905561328b848461352e565b600082600001828154811061351b5761351b6141da565b9060005260206000200154905092915050565b6000818152600183016020526040812054610db69084908490849061357f57508154600181810184556000848152602080822090930184905584548482528286019093526040902091909155610bfc565b506000610bfc565b6001600160a01b0381168114610f0657600080fd5b8035611c0881613587565b600080604083850312156135ba57600080fd5b82356135c581613587565b946020939093013593505050565b6001600160e01b031981168114610f0657600080fd5b6000602082840312156135fb57600080fd5b8135610db6816135d3565b60005b83811015613621578181015183820152602001613609565b50506000910152565b60008151808452613642816020860160208601613606565b601f01601f19169290920160200192915050565b602081526000610db6602083018461362a565b60006020828403121561367b57600080fd5b8135610db681613587565b60006020828403121561369857600080fd5b5035919050565b634e487b7160e01b600052604160045260246000fd5b601f8201601f191681016001600160401b03811182821017156136da576136da61369f565b6040525050565b60405161010081016001600160401b03811182821017156137045761370461369f565b60405290565b60006001600160401b038211156137235761372361369f565b5060051b60200190565b600082601f83011261373e57600080fd5b8135602061374b8261370a565b60405161375882826136b5565b83815260059390931b850182019282810191508684111561377857600080fd5b8286015b84811015613793578035835291830191830161377c565b509695505050505050565b60006001600160401b038211156137b7576137b761369f565b50601f01601f191660200190565b600082601f8301126137d657600080fd5b81356137e18161379e565b6040516137ee82826136b5565b82815285602084870101111561380357600080fd5b82602086016020830137600092810160200192909252509392505050565b600080600080600060a0868803121561383957600080fd5b853561384481613587565b9450602086013561385481613587565b935060408601356001600160401b038082111561387057600080fd5b61387c89838a0161372d565b9450606088013591508082111561389257600080fd5b61389e89838a0161372d565b935060808801359150808211156138b457600080fd5b506138c1888289016137c5565b9150509295509295909350565b6000606082840312156138e057600080fd5b604051606081018181106001600160401b03821117156139025761390261369f565b60405282358152905080602083013561391a81613587565b6020820152604083013561392d81613587565b6040919091015292915050565b60006060828403121561394c57600080fd5b610db683836138ce565b6000806040838503121561396957600080fd5b82356001600160401b038082111561398057600080fd5b818501915085601f83011261399457600080fd5b813560206139a18261370a565b6040516139ae82826136b5565b83815260059390931b85018201928281019150898411156139ce57600080fd5b948201945b838610156139f55785356139e681613587565b825294820194908201906139d3565b96505086013592505080821115613a0b57600080fd5b506116a48582860161372d565b600081518084526020808501945080840160005b83811015613a4857815187529582019590820190600101613a2c565b509495945050505050565b602081526000610db66020830184613a18565b803563ffffffff81168114611c0857600080fd5b60008060008060808587031215613a9057600080fd5b8435613a9b81613587565b93506020850135613aab81613587565b9250604085013560038110613abf57600080fd5b915060608501356001600160401b0380821115613adb57600080fd5b908601906101008289031215613af057600080fd5b613af86136e1565b823582811115613b0757600080fd5b613b138a8286016137c5565b825250602083013582811115613b2857600080fd5b613b348a8286016137c5565b602083015250604083013582811115613b4c57600080fd5b613b588a8286016137c5565b604083015250606083013582811115613b7057600080fd5b613b7c8a8286016137c5565b606083015250613b8e60808401613a66565b6080820152613b9f60a0840161359c565b60a082015260c083013582811115613bb657600080fd5b613bc28a8286016137c5565b60c08301525060e083013582811115613bda57600080fd5b613be68a8286016137c5565b60e0830152509598949750929550505050565b634e487b7160e01b600052602160045260246000fd5b60038110613c2d57634e487b7160e01b600052602160045260246000fd5b9052565b60208101610bfc8284613c0f565b60008060208385031215613c5257600080fd5b82356001600160401b0380821115613c6957600080fd5b818501915085601f830112613c7d57600080fd5b813581811115613c8c57600080fd5b86602060e083028501011115613ca157600080fd5b60209290920196919550909350505050565b600060208284031215613cc557600080fd5b81356001600160401b03811115613cdb57600080fd5b61328b848285016137c5565b600060208284031215613cf957600080fd5b610db682613a66565b8015158114610f0657600080fd5b60008060408385031215613d2357600080fd5b8235613d2e81613587565b91506020830135613d3e81613d02565b809150509250929050565b600080600060608486031215613d5e57600080fd5b833592506020840135613d7081613587565b929592945050506040919091013590565b60008060408385031215613d9457600080fd5b823591506020830135613d3e81613587565b60008083601f840112613db857600080fd5b5081356001600160401b03811115613dcf57600080fd5b6020830191508360208260051b850101111561225657600080fd5b60008083601f840112613dfc57600080fd5b5081356001600160401b03811115613e1357600080fd5b60208301915083602082850101111561225657600080fd5b60008060008060008060008060a0898b031215613e4757600080fd5b8835613e5281613587565b97506020890135613e6281613587565b965060408901356001600160401b0380821115613e7e57600080fd5b613e8a8c838d01613da6565b909850965060608b0135915080821115613ea357600080fd5b613eaf8c838d01613da6565b909650945060808b0135915080821115613ec857600080fd5b50613ed58b828c01613dea565b999c989b5096995094979396929594505050565b60008060408385031215613efc57600080fd5b8235613f0781613587565b91506020830135613d3e81613587565b60008060008060008060a08789031215613f3057600080fd5b8635613f3b81613587565b95506020870135613f4b81613587565b9450604087013593506060870135925060808701356001600160401b03811115613f7457600080fd5b613f8089828a01613dea565b979a9699509497509295939492505050565b600080600080600060a08688031215613faa57600080fd5b8535613fb581613587565b94506020860135613fc581613587565b9350604086013592506060860135915060808601356001600160401b03811115613fee57600080fd5b6138c1888289016137c5565b634e487b7160e01b600052601160045260246000fd5b8082028115828204841417610bfc57610bfc613ffa565b60008261404457634e487b7160e01b600052601260045260246000fd5b500490565b60006020828403121561405b57600080fd5b8151610db681613587565b6001600160a01b03898116825260208201899052878116604083015286811660608301528516608082015260a0810184905260c0810183905261010081016140b160e0830184613c0f565b9998505050505050505050565b81810381811115610bfc57610bfc613ffa565b600181811c908216806140e557607f821691505b60208210810361410557634e487b7160e01b600052602260045260246000fd5b50919050565b60006020828403121561411d57600080fd5b81516001600160401b0381111561413357600080fd5b8201601f8101841361414457600080fd5b805161414f8161379e565b60405161415c82826136b5565b82815286602084860101111561417157600080fd5b614182836020830160208701613606565b9695505050505050565b6020808252602e908201527f455243313135353a2063616c6c6572206973206e6f7420746f6b656e206f776e60408201526d195c881bdc88185c1c1c9bdd995960921b606082015260800190565b634e487b7160e01b600052603260045260246000fd5b60006001820161420257614202613ffa565b5060010190565b600060e0828403121561421b57600080fd5b60405160a081018181106001600160401b038211171561423d5761423d61369f565b60405261424a84846138ce565b815260608301356002811061425e57600080fd5b60208201526080830135604082015260a083013561427b81613587565b606082015260c083013561428e81613587565b60808201529392505050565b6000602082840312156142ac57600080fd5b8151610db681613d02565b601f8211156142fd57600081815260208120601f850160051c810160208610156142de5750805b601f850160051c820191505b81811015611cbf578281556001016142ea565b505050565b81516001600160401b0381111561431b5761431b61369f565b61432f8161432984546140d1565b846142b7565b602080601f831160018114614364576000841561434c5750858301515b600019600386901b1c1916600185901b178555611cbf565b600085815260208120601f198616915b8281101561439357888601518255948401946001909101908401614374565b50858210156143b15787850151600019600388901b60f8161c191681555b5050505050600190811b01905550565b600081516143d3818560208601613606565b9290920192915050565b683f6e616d653d30787360b81b815260008251614401816009850160208701613606565b9190910160090192915050565b6f266465736372697074696f6e3d30787360801b815260008251614439816010850160208701613606565b9190910160100192915050565b6926696d6167653d30787360b01b81526000825161446b81600a850160208701613606565b91909101600a0192915050565b712665787465726e616c5f6c696e6b3d30787360701b8152600082516144a5816012850160208701613606565b9190910160120192915050565b7f2673656c6c65725f6665655f62617369735f706f696e74733d000000000000008152600082516144ea816019850160208701613606565b9190910160190192915050565b6e266665655f726563697069656e743d60881b81526000825161452181600f850160208701613606565b91909101600f0192915050565b600080895461453c816140d1565b60018281168015614554576001811461456957614598565b60ff1984168752821515830287019450614598565b8d60005260208060002060005b8581101561458f5781548a820152908401908201614576565b50505082870194505b5050505088516145ac818360208d01613606565b88519101906145bf818360208c01613606565b6145e66145e06145da6145d48486018c6143c1565b8a6143c1565b886143c1565b866143c1565b9b9a5050505050505050505050565b6001600160a01b03868116825285166020820152604081018490526060810183905260a06080820181905260009061462f9083018461362a565b979650505050505050565b60208082526025908201527f455243313135353a207472616e7366657220746f20746865207a65726f206164604082015264647265737360d81b606082015260800190565b6020808252602a908201527f455243313135353a20696e73756666696369656e742062616c616e636520666f60408201526939103a3930b739b332b960b11b606082015260800190565b80820180821115610bfc57610bfc613ffa565b6040815260006146ef6040830185613a18565b82810360208401526147018185613a18565b95945050505050565b6001600160a01b0386811682528516602082015260a06040820181905260009061473690830186613a18565b82810360608401526147488186613a18565b9050828103608084015261475c818561362a565b98975050505050505050565b60006020828403121561477a57600080fd5b8151610db6816135d3565b600060033d111561479e5760046000803e5060005160e01c5b90565b600060443d10156147af5790565b6040516003193d81016004833e81513d6001600160401b0381602484011181841117156147de57505050505090565b82850191508151818111156147f65750505050505090565b843d87010160208285010111156148105750505050505090565b61481f602082860101876136b5565b509095945050505050565b60208082526028908201527f455243313135353a204552433131353552656365697665722072656a656374656040820152676420746f6b656e7360c01b606082015260800190565b60008161488157614881613ffa565b506000190190565b634e487b7160e01b600052603160045260246000fdfe7016719027ff29c13bc4816903851ea968172a86b766c733b954fdabe53c87eea264697066735822122096a53622d491526ca622cf22f798b99931ce8144b1781bf8c8edd6d096c79d6064736f6c63430008110033",
  "compiler": {
    "name": "solc",
    "version": "0.8.17+commit.8df45f5f.Emscripten.clang"
  },
  "contractName": "AssetShell",
  "devdoc": {
    "kind": "dev",
    "methods": {
      "assetMeta(uint256)": {
        "details": "assetMeta(tokenId) Returns the asset meta data of this tokenId"
      },
      "balanceOf(address,uint256)": {
        "details": "See {IERC1155-balanceOf}. Requirements: - `account` cannot be the zero address."
      },
      "balanceOfBatch(address[],uint256[])": {
        "details": "See {IERC1155-balanceOfBatch}. Requirements: - `accounts` and `ids` must have the same length."
      },
      "convertTokenID(address,uint256)": {
        "details": "convertTokenID() convert meta token and token id to token id"
      },
      "exists(uint256)": {
        "details": "Indicates whether any token exist with a given id, or not."
      },
      "isApprovedForAll(address,address)": {
        "details": "See {IERC1155-isApprovedForAll}."
      },
      "lockedAt(uint256,address,uint256)": {
        "details": "Returns the owner token locked count and previous owner address"
      },
      "lockedOf(uint256,address)": {
        "details": "Returns the owner token locked count and locked items length"
      },
      "minimumPrice(uint256)": {
        "details": "minimumPrice(tokenId) Returns the minimum price of this tokenId asset"
      },
      "name()": {
        "details": "Gets the token name.",
        "returns": {
          "_0": "string representing the token name"
        }
      },
      "onERC1155BatchReceived(address,address,uint256[],uint256[],bytes)": {
        "details": "Handles the receipt of a multiple ERC1155 token types. This function is called at the end of a `safeBatchTransferFrom` after the balances have been updated. NOTE: To accept the transfer(s), this must return `bytes4(keccak256(\"onERC1155BatchReceived(address,address,uint256[],uint256[],bytes)\"))` (i.e. 0xbc197c81, or its own function selector).",
        "params": {
          "data": "Additional data with no specified format",
          "from": "The address which previously owned the token",
          "ids": "An array containing ids of each token being transferred (order and length must match values array)",
          "operator": "The address which initiated the batch transfer (i.e. msg.sender)",
          "values": "An array containing amounts of each token being transferred (order and length must match ids array)"
        },
        "returns": {
          "_0": "`bytes4(keccak256(\"onERC1155BatchReceived(address,address,uint256[],uint256[],bytes)\"))` if transfer is allowed"
        }
      },
      "safeBatchTransferFrom(address,address,uint256[],uint256[],bytes)": {
        "details": "See {IERC1155-safeBatchTransferFrom}."
      },
      "safeTransferFrom(address,address,uint256,uint256,bytes)": {
        "details": "See {IERC1155-safeTransferFrom}."
      },
      "setApprovalForAll(address,bool)": {
        "details": "See {IERC1155-setApprovalForAll}."
      },
      "totalSupply(uint256)": {
        "details": "Total amount of tokens in with a given id."
      },
      "unlockForOperator(((uint256,address,address),uint8,uint256,address,address)[])": {
        "details": "unlockForOperator()"
      },
      "uri(uint256)": {
        "details": "overwrite"
      },
      "withdraw(uint256,address,uint256)": {
        "details": "withdraw() withdraw and unlock meta asset"
      }
    },
    "version": 1
  },
  "immutableReferences": {},
  "schemaVersion": "3.4.11",
  "source": "// SPDX-License-Identifier: MIT\npragma solidity ~0.8.17;\n\npragma experimental ABIEncoderV2;\n\nimport './libs/Errors.sol';\nimport './libs/ERC721.sol';\nimport './Asset.sol';\n\ncontract AssetShell is AssetModule, ERC1155, IAssetShell {\n\tusing Address for address;\n\tusing EnumerableMap for EnumerableMap.AddressToUintMap;\n\n\tstruct Locked {\n\t\tuint256                        count; // owner locked count total for tokenId\n\t\tEnumerableMap.AddressToUintMap counts; // previous asset owner address => value\n\t}\n\n\tstruct LockedID {\n\t\tuint256 tokenId;\n\t\taddress owner;\n\t\taddress previous; // previous owner\n\t}\n\n\tstruct AssetData {\n\t\tAssetID                    meta; // asset meta data\n\t\tuint256                    minimumPrice; // Minimum transaction price of assets\n\t\tmapping(address => Locked) locked; // owner => Locked\n\t}\n\n\tmapping(uint256 => AssetData) private _assetsData;   // tokenId => raw asset id\n\tLockedID                      private _lastLocked;\n\tSaleType                      public  saleType; // is opensea first or second sale\n\tuint256[16]                   private  __; // reserved storage space\n\n\tfunction supportsInterface(bytes4 interfaceId) public view virtual override(ERC165,IERC165) returns (bool) {\n\t\treturn ERC1155.supportsInterface1155(interfaceId) || ERC165.supportsInterface(interfaceId);\n\t}\n\n\tfunction initAssetShell(address host, address operator, SaleType _saleType, InitContractURI memory uri) external {\n\t\tinitAssetModule(host, operator, uri);\n\t\t_registerInterface(AssetShell_Type);\n\t\tsaleType = _saleType;\n\t}\n\n\tfunction asERC1155(address addr) view internal returns (IERC1155) {\n\t\tif (!addr.isContract()) revert NonContractAddress();\n\t\tif (!IERC1155(addr).supportsInterface(type(IERC1155).interfaceId))\n\t\t\trevert CheckInterfaceNoMatch(type(IERC1155).interfaceId);\n\t\treturn IERC1155(addr);\n\t}\n\n\tfunction onERC1155Received(\n\t\taddress operator,\n\t\taddress from,\n\t\tuint256 tokenId,\n\t\tuint256 value,\n\t\tbytes calldata data\n\t) external returns (bytes4) {\n\t\tIERC1155 token = asERC1155(_msgSender());\n\t\t// require(ad.meta.token == address(0), \"#AssetShell.onERC1155Received mint of asset already exists\");\n\t\trequire(from != address(this));//, \"#AssetShell.onERC1155Received from not for myself\");\n\n\t\taddress to;\n\t\tuint256 price;\n\t\t(to, price) = abi.decode(data, (address, uint256));\n\n\t\tuint256   id         = convertTokenID(address(token), tokenId);\n\t\tAssetData storage ad = _assetsData[id];\n\n\t\tif (ad.minimumPrice == 0)\n\t\t\tad.minimumPrice = price;\n\t\tad.meta.token = address(token);\n\t\tad.meta.tokenId = tokenId;\n\n\t\t_mint(to, id, value, \"\");\n\n\t\treturn 0xf23a6e61;\n\t}\n\n\tfunction onERC1155BatchReceived(\n\t\taddress operator,\n\t\taddress from,\n\t\tuint256[] calldata ids,\n\t\tuint256[] calldata values,\n\t\tbytes calldata data\n\t) external returns (bytes4) {\n\t\trevert MethodNotImplemented();\n\t}\n\n\t/**\n\t * @dev convertTokenID() convert meta token and token id to token id\n\t */\n\tfunction convertTokenID(address metaToken, uint256 metaTokenId) pure public returns (uint256) {\n\t\treturn uint256(keccak256(abi.encodePacked(metaToken, metaTokenId)));\n\t}\n\n\t/**\n\t * @dev overwrite\n\t */\n\tfunction uri(uint256 tokenId) public view virtual override(ERC1155,IERC1155MetadataURI) returns (string memory) {\n\t\tAssetID memory meta = assetMeta(tokenId);\n\t\treturn IERC1155MetadataURI(meta.token).uri(meta.tokenId);\n\t}\n\n\t/**\n\t * @dev assetMeta(tokenId) Returns the asset meta data of this tokenId\n\t */\n\tfunction assetMeta(uint256 tokenId) view public override returns (AssetID memory meta) {\n\t\tmeta = _assetsData[tokenId].meta;\n\t\t// require(meta.token != address(0), \"#AssetShell.assetMeta asset non exists\");\n\t\tif (meta.token == address(0)) revert AssetNonExistsInAssetShell();\n\t}\n\n\t/**\n\t * @dev withdraw() withdraw and unlock meta asset\n\t */\n\tfunction withdraw(uint256 tokenId, address owner, uint256 count) external override Check(Action_Asset_Shell_Withdraw) {\n\t\tAssetID storage meta = _assetsData[tokenId].meta;\n\t\t// require(meta.token != address(0), \"#AssetShell#withdraw withdraw of asset non exists\");\n\t\tif (meta.token == address(0)) revert AssetNonExistsInAssetShell();\n\t\twithdrawFrom(owner, owner, tokenId, count, \"\");\n\t}\n\n\t/**\n\t * @dev withdrawFrom() implement withdraw and unlock meta asset, internal method\n\t */\n\tfunction withdrawFrom(address from, address to, uint256 id, uint256 count, bytes memory data) internal {\n\t\tAssetID storage meta = _assetsData[id].meta;\n\t\tIERC1155(meta.token).safeTransferFrom(address(this), to, meta.tokenId, count, data);\n\t\t_burn(from, id, count);\n\t}\n\n\t/**\n\t * @dev Returns the owner token locked count and locked items length\n\t */\n\tfunction lockedOf(uint256 tokenId, address owner) view public returns (uint256 count, uint256 length) {\n\t\tLocked storage locked = _assetsData[tokenId].locked[owner];\n\t\tcount = locked.count;\n\t\tlength = locked.counts.length();\n\t}\n\n\t/**\n\t * @dev Returns the owner token locked count and previous owner address\n\t */\n\tfunction lockedAt(uint256 tokenId, address owner, uint256 index) view public \n\t\treturns (address previous, uint256 count) \n\t{\n\t\t(previous,count) = _assetsData[tokenId].locked[owner].counts.at(index);\n\t}\n\n\t/**\n\t * @dev minimumPrice(tokenId) Returns the minimum price of this tokenId asset\n\t */\n\tfunction minimumPrice(uint256 tokenId) view public returns (uint256) {\n\t\treturn _assetsData[tokenId].minimumPrice;\n\t}\n\n\t/**\n\t * @dev called after token transfer\n\t */\n\tfunction _afterTokenTransfer(\n\t\taddress operator,\n\t\taddress from,\n\t\taddress to,\n\t\tuint256[] memory ids,\n\t\tuint256[] memory counts,\n\t\tbytes memory data\n\t) internal virtual override {\n\n\t\tfor (uint256 i = 0; i < ids.length; i++) {\n\t\t\tuint256 id = ids[i];\n\t\t\tAssetData storage asset = _assetsData[id];\n\t\t\tLocked storage locked = asset.locked[to];\n\t\t\tuint256 count = counts[i];\n\n\t\t\tif (asset.minimumPrice != 0) {\n\t\t\t\tif (from != address(0)) { // not mint\n\t\t\t\t\tif (balanceOf(from, id) < asset.locked[from].count) { // locaked\n\t\t\t\t\t\trevert NeedToUnlockAssetFirst();\n\t\t\t\t\t}\n\t\t\t\t\tif (to != address(0)) { // not burn\n\t\t\t\t\t\tif (locked.counts.contains(from))\n\t\t\t\t\t\t\trevert NeedToUnlockAssetFirstForPreviousOwner();\n\n\t\t\t\t\t\tlocked.count += count;\n\t\t\t\t\t\tlocked.counts.set(from, count);\n\t\t\t\t\t\t_lastLocked = LockedID(id,to,from);\n\t\t\t\t\t}\n\t\t\t\t}\n\t\t\t}\n\t\t}\n\t}\n\n\t/**\n\t * @dev unlock_() receive eth transaction and unlock asset\n\t */\n\tfunction unlock_(LockedID memory lock, address sender, uint256 value) private {\n\t\t// require(tokenId != 0, \"#AssetShell#unlock locked tokenId != 0\");\n\t\t// if (id.tokenId == 0) revert TokenIDEmpty();\n\t\t// require(value != 0, \"#AssetShell#unlock value != 0\"); // price\n\t\t// if (value == 0) revert PayableAmountZero();\n\t\t// require(ad.locked != address(0), \"#AssetShell#unlock Lock cannot be empty\"); // price\n\t\t// if (id.owner == address(0)) revert LockTokenIDEmptyInAssetShell();\n\t\t// if (id.previous == address(0)) revert LockTokenIDPreviousOwnerEmptyInAssetShell();\n\n\t\tAssetData storage asset  = _assetsData[lock.tokenId];\n\t\tLocked    storage locked = asset.locked[lock.owner];\n\t\tuint256           count  = locked.counts.get(lock.previous);\n\n\t\tif (count == 0) revert LockTokenIDValueEmptyInAssetShell();\n\n\t\taddress to = lock.owner;\n\t\tuint256 price = value * 10_000 / seller_fee_basis_points; // transfer price\n\t\tuint256 min_price = asset.minimumPrice * count; // minimum price\n\n\t\t// check transfer price\n\t\t// require(count >= ad.minimumPrice, \"#AssetShell#unlock price >= minimum price\"); // price\n\t\tif (price < min_price) revert PayableInsufficientAmount();\n\n\t\t//AssetID storage meta = ad.meta;\n\t\t_host.ledger().assetIncome{value: value}(\n\t\t\taddress(this), lock.tokenId, sender, lock.previous, to, price, count, saleType\n\t\t);\n\n\t\tif (_lastLocked.tokenId == lock.tokenId &&\n\t\t\t_lastLocked.owner == lock.owner && \n\t\t\t_lastLocked.previous == lock.previous\n\t\t) {\n\t\t\t_lastLocked.tokenId = 0;\n\t\t}\n\n\t\t// unlock\n\t\tlocked.count -= count;\n\t\tlocked.counts.remove(lock.previous);\n\n\t\tif (saleType == SaleType.kFirst) {\n\t\t\tbytes memory data = abi.encode(to, asset.minimumPrice);\n\t\t\twithdrawFrom(to, address(_host.module(Module_ASSET_Second_ID)), lock.tokenId, count, data);\n\t\t}\n\t}\n\n\tenum PayType {\n\t\tkDefault, // default eth\n\t\tkWETH\n\t}\n\n\tstruct UnlockForOperator {\n\t\tLockedID lock;\n\t\tPayType  payType;\n\t\tuint256  payValue; // value\n\t\taddress  payBank; // erc20 contract address\n\t\taddress  payer;   // opensea contract => sender\n\t}\n\n\t/**\n\t * @dev unlockForOperator()\n\t */\n\tfunction unlockForOperator(UnlockForOperator[] calldata data) public payable {\n\t\tif (_host.daos().operator() != msg.sender) {\n\t\t\trevert PermissionDeniedForOnlyDAOsOperator();\n\t\t}\n\n\t\tuint256 value = msg.value;\n\t\tfor (uint256 i = 0; i < data.length; i++) {\n\t\t\tUnlockForOperator memory it = data[i];\n\t\t\tif (it.payType == PayType.kDefault) {\n\t\t\t\tif (value < it.payValue) revert PayableInsufficientAmount();\n\t\t\t\tvalue -= it.payValue;\n\t\t\t\tunlock_(it.lock, it.payer, it.payValue);\n\t\t\t} else {\n\t\t\t\tIWETH(it.payBank).withdraw(it.payValue);\n\t\t\t\tif (address(this).balance < it.payValue ) revert PayableInsufficientAmountWETH();\n\t\t\t\tunlock_(it.lock, it.payer, it.payValue);\n\t\t\t}\n\t\t}\n\t}\n\n\tfunction unlock(LockedID memory lock) public payable {\n\t\tunlock_(lock, msg.sender, msg.value);\n\t}\n\n\t/**\n\t * @dev receive eth token\n\t */\n\treceive() external payable {\n\t\tunlock_(_lastLocked, msg.sender, msg.value); // unlock last locked\n\t}\n}\n",
  "sourcePath": "/Users/sosbs/coding/web3/smart-dao/SmartHolder/contracts/AssetShell.sol",
  "updatedAt": "2023-05-06T03:24:56.616Z",
  "userdoc": {
    "kind": "user",
    "methods": {},
    "version": 1
  }
}